:020000040800F2
:10000000F04B002045030008074A0008A536000809
:10001000054A000845060008835C0008000000004F
:100020000000000000000000000000008502000841
:100030000909000800000000E1020008B1570008AB
:100040005F0300085F0300085F0300085F03000808
:100050005F0300085F0300085F0300085F030008F8
:100060005F0300085F0300085F0300085F030008E8
:100070005F0300085F0300085F0300085F030008D8
:100080005F0300085F0300085F0300085F030008C8
:1000900049060008550600085F0300085F030008D2
:1000A0005F0300088D5800085F0300085F03000825
:1000B0005F0300085F0300085F03000821370008A2
:1000C0005F0300085F0300085F0300085F03000888
:1000D0005F0300085F0300085F0300085F03000878
:1000E0005F0300085F0300085F0300085F03000868
:1000F0005F030008995800085F0300085F030008C9
:100100005F0300085F0300085F0300085F03000847
:10011000815900088D5900085F0300085F0300083B
:100120005F0300085F0300085F0300085F03000827
:100130005F03000800000000000000005F030008EB
:10014000610600086D0600085F0300085F030008F1
:100150005F0300085F0300085F0300085F030008F7
:100160005F0300085F0300085F0300085F030008E7
:100170005F0300085F0300085F0300080000000041
:10018000000000005F030008000000000000000005
:100190005F03000800000000000000005F0300088B
:1001A0000000000000000000000000005F030008E5
:1001B0005F0300085F0300085F030008D910000810
:1001C0005F03000800F002F800F04CF80AA090E885
:1001D000000C82448344AAF10107DA4501D100F002
:1001E00041F8AFF2090EBAE80F0013F0010F18BF83
:1001F000FB1A43F00103184780860000A086000028
:100200000A4410F8014B14F00F0508BF10F8015B09
:10021000240908BF10F8014B6D1E05D010F8013BF2
:100220006D1E01F8013BF9D1641E03D0641E01F874
:10023000015BFBD19142E4D370470000002300240E
:1002400000250026103A28BF78C1FBD8520728BFE6
:1002500030C148BF0B6070471FB508F0B6F91FBD2D
:1002600010B510BD00F074F91146FFF7F5FF06F068
:1002700067FD00F092F903B4FFF7F2FF03BC00F052
:1002800095F900002C4B19680868B0E8F04F80F32E
:100290000988BFF36F8F4FF0000080F3118870471B
:1002A0000000000008480068006880F308884FF0EC
:1002B000000080F3148862B661B6BFF34F8FBFF3BE
:1002C0006F8F00DF00BF00BF08ED00E0DFF80C001B
:1002D000016841F470010160704700BF88ED00E0E3
:1002E000EFF30980BFF36F8F134B1A681EF0100FE6
:1002F00008BF20ED108A20E9F04F106009B44FF0DC
:10030000500080F31188BFF34F8FBFF36F8F07F05A
:10031000CDF94FF0000080F3118809BC1968086816
:10032000B0E8F04F1EF0100F08BFB0EC108A80F359
:100330000988BFF36F8F70474C020020EFF30580F0
:10034000704700000948804709480047FEE7FEE77C
:10035000FEE7FEE7FEE7FEE7FEE7FEE7FEE7FEE775
:1003600004480549054A064B704700007D580008BF
:10037000C5010008F0450020F04B0020F0470020A8
:10038000F047002053EA020C00F069802DE9F04BA1
:100390004FF00006002B1FBFB3FA83F503FA05F4F4
:1003A00024FA05F65E4012BF1643B2FA82F502FA4D
:1003B00005F4C5F120051EBF22FA05FC44EA0C0431
:1003C000203556EA044C4FEA144418BF641C4FF021
:1003D00000084FF00009904271EB030C39D300295B
:1003E00019BFB1FA81F701FA07F6B0FA80F700FAFF
:1003F00007F6C7F120071EBF20FA07FC46EA0C06E5
:100400002037B6FBF4FCA7EB0507103F07F01F0BE6
:10041000CBF120060CFA0BFB2CFA06F644BFB346D0
:100420000026202FA4BF5E464FF0000B5BEA060CAF
:1004300008BF4FF0010B19EB0B09ABFB027C48EB3B
:100440000608C01B06FB02CC0BFB03CC71EB0C01B6
:10045000C1E70B46024641464846BDE8F08B13B55E
:100460004FF000004FF00001AFF30080BDE81C40EA
:10047000704710B5203AC0F00B80B1E81850203A10
:10048000A0E81850B1E81850A0E81850BFF4F5AF34
:100490005FEA027C24BFB1E81850A0E8185044BFBE
:1004A00018C918C0BDE810405FEA827C24BF51F82B
:1004B000043B40F8043B08BF7047D20728BF31F81F
:1004C000023B48BF11F8012B28BF20F8023B48BF70
:1004D00000F8012B70474FF0000200B51346944618
:1004E0009646203922BFA0E80C50A0E80C50B1F18C
:1004F0002001BFF4F7AF090728BFA0E80C5048BFA0
:100500000CC05DF804EB890028BF40F8042B08BF3D
:10051000704748BF20F8022B11F0804F18BF00F839
:10052000012B704770477047704710B500F008F80E
:10053000006810BD10B5044600F002F8046010BD5C
:10054000004870478C450020004870478C450020CB
:100550007546FFF7F9FFAE4605006946534620F0A1
:100560000700854618B020B5FFF7FAFEBDE8204029
:100570004FF000064FF000074FF000084FF0000B5F
:1005800021F00701AC46ACE8C009ACE8C009ACE812
:10059000C009ACE8C0098D46704710B50446AFF3FA
:1005A00000802046BDE81040FFF765BE01491820D5
:1005B000ABBEFEE726000200704700000849094A6A
:1005C00001EB8001126B0A6091ED000A044ABDEE56
:1005D000C00A503210EE101A22F8101070470000B6
:1005E000500500200002002010B54FF400611148B2
:1005F00001F0FCFC00B101200F4C60700F4AE16B70
:10060000914202DB0121617101E000216171A17958
:100610006279914202D1A178814209D00649012232
:10062000491D074803F024F86079A0716078A07034
:1006300010BD000000080240000000200000384209
:10064000E8030020FEE70000014800F08DBF000035
:10065000B4020020014800F087BF0000B40200206F
:10066000014800F081BF0000DC020020014800F0DA
:100670007BBF0000DC02002018B50F4B002803F1FF
:100680003002A2F1180102D0012809D011E00020A7
:10069000145C0C54401C0328FADD9869009008E0B3
:1006A0000020141824790C54401C0328F9DD9869A3
:1006B00000909DED000A18BD0002002001784078EE
:1006C00040EA0120704700002DE9FF4104462DED6E
:1006D000020B0026464D6E602E75AE602A61012B1E
:1006E00014D0022B14D00220E860424F182961D2A6
:1006F000DFE801F0101922313640454A603B536073
:1007000060606060606060606060605C0220EBE779
:100710000020E9E769463748FFF7ABFE0D2040EAC5
:100720004410286046E069463248FFF7A2FE0E20DA
:1007300040EA441028603DE08C20B8714220F871F6
:100740002C48009920380162082028610F2040EAD7
:10075000441028602EE0032000EB4410286029E0BC
:10076000042000EB4410286024E0052000EB441036
:1007700028601FE0142040EA441028601AE0092095
:1007800040EA4410286015E069461A48FFF771FEF8
:100790001C2040EA441028600CE069461548FFF729
:1007A00068FE152040EA4410286003E0172040EA64
:1007B000441028600024104D0E4B0D491C3B0D4A7F
:1007C000A1F5AA7000F04CFD032006F0BBFBA86B5E
:1007D000401CA863641CE4B2032CEDD300203E54FB
:1007E000401CC0B20828FAD306B0BDE8F081000072
:1007F00030040020200200200000002010B52DED64
:10080000068BB0EE409A3B4C94ED060A39EE40AAB6
:1008100084ED03AA1AEE100A07F066FE41EC100BF5
:1008200004F1800090ED028B51EC100B53EC182B6F
:1008300007F006FA07F01EF909EE900AC4ED049AD3
:100840001AEE100A07F050FE53EC182B07F022FCAA
:1008500041EC180B606907F047FE53EC182B07F0CA
:100860003BF907F007F900EE100A84ED050AD4ED14
:10087000070A60EE890AFDEEE00A10EE901AA16206
:10088000D4ED080A20EE800ABDEEC00A10EE100A70
:10089000E062022801DD022004E06FF001029042D4
:1008A00000DA1046E06294ED090A20EE290ABDEE56
:1008B000C00A10EE102A22630844104400EE100A09
:1008C000B8EEC00A84ED020A10EE100A0A49884206
:1008D00002DD9FED0A0A06E010EE100A0849884280
:1008E00001D99FED080A84ED020A84ED069ABDEC59
:1008F000068B10BD800100200000484200004842E5
:10090000000048C2000048C27047000010B52DED3D
:10091000048B51EC100B9FED211B53EC112B07F0B6
:100920008FF99FED201B53EC112B07F0B3FB41EC2B
:10093000100B05F02DFDB0EE409AF0EE609A1B48CA
:10094000408E400007F056FB53EC192B9FED189B8F
:1009500041EC180B51EC190B07F072F953EC182B02
:1009600007F0BAF841EC100B51EC190B53EC102BBB
:1009700007F066F941EC100B05F0AEF99FED0E1B88
:1009800051EC100B53EC112B07F084FB07F072F8BD
:1009900000EE100ABDEC048B10BD0000000000004A
:1009A000008066401F85EB51B81E09400000002002
:1009B0000000000000208C40E79AD56194A94C40CB
:1009C0002DE9F0412DED048B4FF00008B84F97F85A
:1009D00020009FEDB88A002873D0F97C0029FBD055
:1009E00000EB8000142101EB400000EE100A07F537
:1009F0008076B8EE400A86ED0A0A10EE100AAE497B
:100A0000884202DD9FEDAD0A06E010EE100AAC4907
:100A1000884201DAB2EE040A86ED0A0AA949F069B1
:100A200088420CDCA84A904209D8306A884206DC29
:100A3000904204D8A548406B801D0D2801D387F84B
:100A4000218097F8251097F82100814215D020B118
:100A5000012805D002280ED107E086ED0C8A0AE0B5
:100A600096ED090A86ED0C0A05E096ED090AB1EE4D
:100A7000400A86ED0C0A87F8250096ED0C0AB5EEC3
:100A8000C00AF1EE10FA47D097F82200022843D0AE
:100A90008F489FED909BB5EEC00A4068F1EE10FACA
:100AA0001BDD07F021FD41EC100B05F081FA53EC42
:100AB000192B51EC100B07F0EBFB03D29FED870BCA
:100AC00005E0D3E0306B07F00FFD41EC100B51EC6B
:100AD000100B06F0CFFF30631EE0B5EEC00AF1EE5A
:100AE00010FA19D207F000FD41EC100B05F060FA86
:100AF00053EC192B51EC100B07F0CAFB02D29FEDFF
:100B0000790B04E0306B07F0EFFC41EC100B51EC7B
:100B1000100B06F0AFFF306396ED0D0AD6ED0C0A10
:100B2000B4EE600AF1EE10FA11D097F82200022814
:100B30002CD0012496ED0C0A204604F099F8641C90
:100B4000E4B2052CF6D396ED0C0A86ED0D0AD6ED2F
:100B50000B0A96ED0A0AF4EE400AF1EE10FA7DD087
:100B6000B5EEC00AF1EE10FA78D0D6ED0E0AB0EE6E
:100B7000001AF4EEC00AF1EE10FA42DD30EEC10ABE
:100B8000BCEEC00A10EE100AC5B22AE00124032C04
:100B90000BD096ED0C0A86ED0C0A204604F068F89E
:100BA000641CE4B2052CF2D3CDE796ED0C0AB1EE4D
:100BB000400AF0E7012400EE105A02230422B8EEA6
:100BC000400A19462046FFF77FFD012006F0BAF9DA
:100BD000641CE4B2052CEED30A2006F0B3F9AD1E76
:100BE000EDB200EE105AD6ED0A0AB8EE400AB4EEA5
:100BF000E00AF1EE10FADDDA96ED0A0A86ED0E0A49
:100C00002FE030EE810ABCEEC00A10EE100AC5B229
:100C100016E0012400EE105A02230422B8EE400A26
:100C200019462046FFF750FD012006F08BF9641CA1
:100C3000E4B2052CEED30A2006F084F9AD1CEDB227
:100C400000EE105AD6ED0A0AB8EE400AB4EEE00AF9
:100C5000F1EE10FADDD996ED0A0A00E010E086ED1B
:100C60000E0A96ED0A0A86ED0B0A09E00124B0EEA1
:100C7000480A204603F0FCFF641CE4B2052CF6D3BE
:100C8000787800280FD197F8210000280BD0012494
:100C9000B0EE480A204603F0EBFF641CE4B2052CDA
:100CA000F6D387F82180BDEC048BBDE8F08100000D
:100CB0000000002000000000000048420000484200
:100CC000000020410000C0400000C0C080010020A2
:100CD000B8040020000000000000394000000000BF
:100CE0000000F83F000000000000F8BF2DE9F041CF
:100CF0000124094E094F0125052C07D0305D082835
:100D000004D087F82950204602F0CEFC641CE4B2DF
:100D10000B2CF1D9BDE8F081A104002000000020D7
:100D200070B59FED540A544A1046117D90F8220088
:100D3000DFED520A02F5C075002928D19FED501A47
:100D4000042824D309D1517E39B192F82110012908
:100D500006D0022907D0C5ED120A052806D018E0F2
:100D600085ED120AF9E785ED121AF6E7517E81B199
:100D700092F82110012904D0022905D0C5ED120AEC
:100D800007E085ED121A04E085ED120A01E0C5EDD9
:100D9000120A042801D2C5ED120A95ED120A85ED5A
:100DA000150A85ED140AB5EEC00A4FF4A771F1EEED
:100DB00010FA05DD286E884202DDC5ED140A0BE04D
:100DC000B0EE401AB5EEC01AF1EE10FA04D2286E59
:100DD000142801DCC5ED140AB0EE401AB5EEC01AB5
:100DE000F1EE10FA05DD686E884202DDC5ED150AE8
:100DF0000BE0B0EE401AB5EEC01AF1EE10FA04D2D4
:100E0000686E142801DCC5ED150AD5ED130AB4EEA1
:100E1000600AF1EE10FA11D195ED140AD5ED160A1B
:100E2000B4EE600AF1EE10FA08D195ED150AD5ED91
:100E3000170AB4EE600AF1EE10FA1AD0002495ED0C
:100E4000140A0F2003F02AFF95ED150A102003F075
:100E500025FF641CE4B2042CF1D395ED120A85ED54
:100E6000130A95ED140A85ED160A95ED150A85ED20
:100E7000170A70BD0000BA41000000200000000009
:100E80000000BAC12DE9FF4F04462DED028B85B05D
:100E9000894698469FED270B05F096F8B0EE408AFC
:100EA000F0EE608A9FED250B05F08EF8B0EE401A4B
:100EB000F0EE601A53EC182B51EC110B06F0C0FE4B
:100EC00007F052F8834608EB090004EB5010001BB2
:100ED000401C80B204900025002622E004FA0BF0AA
:100EE00040EA09001FFA80FA4946404605F014FF1F
:100EF000074609984FF47A71CDE9017128440090B2
:100F000002235246AE210F4801F028FA641CA4B215
:100F10004FF00009A8EB07001FFA80F8E81985B226
:100F2000761C04988642D9DB05B0BDEC028BBDE887
:100F3000FF8F0000000000000000004000000000E3
:100F4000000040400403002070B51949194AB1F966
:100F50001E00936E18441066B1F92030D46E2344FD
:100F6000536601F11402906353631348B1F91830CA
:100F7000846E2344C365B1F91A40456E2C4404665F
:100F8000B1F91C10056F2944C1665364D463116420
:100F90001C2330320021032000F010F8044ABDE881
:100FA00070401C2344320021042000F007B80000E8
:100FB000A005002080010020800000202DE9FF4FC7
:100FC00004462DED028B85B0894698469FED280B8F
:100FD00004F0FAFFB0EE408AF0EE608A9FED260B37
:100FE00004F0F2FFB0EE401AF0EE601A53EC182B4A
:100FF00051EC110B06F024FE06F0B6FF834608EB19
:10100000090004EB5010001B401C80B20490002526
:10101000002625E004FA0BF040EA09001FFA80FAE6
:101020004946404605F078FE074609984FF47A7124
:10103000CDE901712844009002235246AE211048A8
:1010400001F0DAFA641CA4B24FF00009A8EB070023
:101050001FFA80F8E81985B2052000F0D3FE761C4F
:1010600004988642D6DB05B0BDEC028BBDE8FF8F4D
:1010700000000000000000400000000000004040B0
:10108000040300202DED028B72B6114D9FED118AE5
:1010900001220221284600F0B0FF01220421284647
:1010A00000F0ABFF0124B0EE480A204603F0E0FD5B
:1010B000641CE4B2042CF6D90824B0EE480A204699
:1010C00003F0ECFD641CE4B20B2CF6D9E0E7000061
:1010D0000004024000000000704700002DE9F041CC
:1010E0002DED028B534CE07C9FED538A04F5807507
:1010F000002823D094ED150AD4ED120A30EE600AD0
:1011000085ED070A0020014603F02AFD85ED120A4D
:1011100010EE100A4FF080467742B04205DC10EE28
:10112000100AB84201D8B0EE480A85ED120AB5EEB1
:10113000C00AF1EE10FA0BD001200AE085ED158A05
:1011400085ED128A85ED118ABDEC028BBDE8F08138
:10115000002084F82B0094ED160AD4ED130A30EE2B
:10116000600A85ED080A10EE100AB0F17E5F04DC1B
:1011700010EE100A10F1814F1CD900200146FFF734
:101180003DFB85ED150A10EE100AB04205DC10EEAD
:10119000100AB84201D8B0EE480A85ED150AB5EE3E
:1011A000C00AF1EE10FA01D0012000E0002084F81E
:1011B0002C0001E085ED158A14F82A0F61780843A8
:1011C000A1780843E0702A3CD5ED130A95ED110A89
:1011D000F4EE400AF1EE10FA06D0E07903F05EFD7D
:1011E00095ED110A85ED130AD5ED140A95ED120A55
:1011F000F4EE400AF1EE10FA06D0207A03F04EFD2C
:1012000095ED120A85ED140AD5ED160A95ED150A2D
:10121000F4EE400AF1EE10FA06D0607A03F03EFDDB
:1012200095ED150A85ED160A14F82E0F617808431E
:10123000A07089E7000000200000000090F8202046
:10124000012A07D0022A05D0416A41F48021416277
:1012500001207047006842690A43426100207047DC
:10126000F0B590F820500468A468012D07D0022D35
:1012700005D0416A41F4802141620120F0BD04F0B3
:10128000806504F00066354301D1E50053D5C4F311
:1012900001640125A5401D608B684FF4C0759BB1AA
:1012A000CE6805EB041733434E6843EAC60306686D
:1012B000F3514FF4C273076803EB04130E69FE5039
:1012C000097D012909D00DE00E88CB6805EB0417D4
:1012D00043EA46530668F351EBE70168CE5846F4FB
:1012E0008076CE501179D379567941EA03619379AA
:1012F0001B0443EA062319434FF4C676036806EB42
:10130000041699511178D37841EA036193785278A1
:101310001B0443EA022211434FF4C473026803EB37
:101320000413D150006805EB0411425842F0010249
:1013300042500020F0BD416A41F400114162012099
:10134000F0BD000010B590F82020012A07D0022A35
:1013500005D0416A41F480214162012010BD3C4822
:1013600000F50070026842F001020260026822F497
:101370007C52026002684B6A42EA032202600A7DE4
:1013800002F01F0301229A40C3699343C361A0F591
:101390000070CB69B3B9D0F80C329343C0F80C326B
:1013A0008C894B6864F31F434C6900EBC404C4F898
:1013B00040320C890B6864F31F434C6900EBC40492
:1013C000C4F84432CB69012B16D1D0F80C32134348
:1013D000C0F80C320C884B6864F31F434C6900EB77
:1013E000C404C4F840320C89CB6864F31F434C69D1
:1013F00000EBC404C4F844328B697BB1D0F80432EA
:101400001343C0F804320B6973B1D0F8143213439C
:10141000C0F81432096A01290CD010E0D0F8043267
:101420009343C0F80432EEE7D0F814329343C0F887
:101430001432EFE7D0F81C121143C0F81C12D0F898
:10144000001221F00101C0F80012002010BD0000C0
:1014500000640040704770B590F82040012C07D020
:10146000022C05D0416A41F480214162012070BD07
:1014700021B104682469A4072AD003E00468E46861
:10148000A4071FD04FF4D874056804EB01142D593C
:1014900005F0040595600DB305682D59ED085560FC
:1014A00005682C5904F00204D4604FF4DA7405681E
:1014B00004EB01142E5906F00F06082E13D308254D
:1014C000156114E0416A41F400114162012070BDD0
:1014D000416A41F400114162012070BD05682D5937
:1014E0006D0D1560DCE72D5905F00F0515610568D8
:1014F0002D59C5F30725956105682C59240C5461B5
:101500004FF4DC72046802EB0112A4581C700468EA
:10151000A458240A5C700468A458240C9C700468C5
:10152000A258120EDA704FF4DE72046802EB011258
:10153000A4581C710468A458240A5C710468A45857
:10154000240C9C710468A258120EDA7131B1006843
:10155000016941F020010161002070BD0068C1688F
:1015600041F02001C160F7E72DE9F05F0546002456
:1015700028684669D0F804908768D0F80CA0D0F8A5
:1015800010B0D0F81880F10748D0F90714D0012125
:101590008160B80703D5284600F0D2FB0CE078073D
:1015A00002D54FF4006407E0380702D54FF48054A9
:1015B00002E0284600F0C3FBF80516D529684FF471
:1015C00080708860B80503D5284600F0BBFB0CE0AE
:1015D000780502D544F4005407E0380502D544F4F8
:1015E000804402E0284600F0ACFBF80316D52968D9
:1015F0004FF480308860B80303D5284600F0A4FB80
:101600000CE0780302D544F4004407E0380302D527
:1016100044F4803402E0284600F095FB300707D5FB
:101620005FEACA6004D544F4007429681020C860D9
:1016300070074FF0080707D55FEA0A7004D52868DD
:10164000C760284600F0CAF9B00706D52868C06808
:10165000800702D0284600F0C3F9700607D55FEA7C
:10166000CB6004D544F48064296810200861B0067A
:1016700007D55FEA0B7004D528680761284600F09B
:10168000B3FAF00606D528680069800702D028461C
:1016900000F0ACFAB00308D55FEAC96005D5296847
:1016A00010204860284600F01DFBF00307D55FEAD4
:1016B000097004D528684760284600F046FB3004CE
:1016C00046D55FEA497040D5F00504D55FEAC87099
:1016D00001D044F00104B00504D55FEA887001D55B
:1016E00044F00204700504D55FEA487001D544F067
:1016F0000404300529D518F0700F26D008F07000CA
:10170000402815D006DC102809D020280AD030281F
:1017100016D10AE050280ED0602811D10EE044F016
:1017200008040DE044F010040AE044F0200407E04F
:1017300044F0400404E044F0800401E044F4807488
:101740002868816921F0700181612968042048605E
:10175000002C05D0686A204368622846FFF77AFEAD
:10176000BDE8F09F70B50446002C03D094F820002B
:1017700010B104E0012070BD204600F09DF8206803
:10178000016841F00101016000F03EFC05460526BC
:101790000CE000F039FC401B0A2807D9606A40F4CD
:1017A0000030606284F82060012070BD20684068CD
:1017B000C007EED02068016821F00201016000F04E
:1017C00023FC05460CE000F01FFC401B0A2807D94B
:1017D000606A40F40030606284F82060012070BDCF
:1017E000206840688007EED4207E01283FD0206822
:1017F000016821F080010160607E01283DD02068F1
:10180000016821F040010160A07E01283BD02068E2
:10181000016821F020010160E07E012839D02068B4
:10182000016841F010010160207F012837D0206855
:10183000016821F008010160607F012835D020682F
:10184000016821F004010160D4E902010843D4E9F0
:101850000412114308436168491E08432168C861A6
:1018600000206062012084F82000002070BD206804
:10187000016841F080010160BEE72068016841F025
:1018800040010160C0E72068016841F0200101606B
:10189000C2E72068016821F010010160C4E72068F8
:1018A000016841F008010160C6E72068016841F065
:1018B00004010160C8E700002DE9F04387B0044649
:1018C000142102A8FEF707FE404D2268404C29680B
:1018D000DFF8F4903E4B02273E48491C10340026A6
:1018E0004FF0030C4FF009084A4531D12960012916
:1018F00007D1216841F000712160216801F0007179
:101900000191196841F002011960196801F00201A2
:1019100001914FF44071029103970496CDF814C0E1
:10192000CDF8188002A900F07FFA002205211420CA
:1019300000F0D4FF142000F0C3FF00220521152081
:1019400000F0CCFF152000F0BBFF07B0BDE8F0832E
:10195000DFF884904A45F8D1226842F08062226024
:10196000226802F0806201922960012907D1216872
:1019700041F000712160216801F000710191196846
:1019800041F002011960196801F0020101914FF460
:101990004051029103970496CDF814C0CDF81880F9
:1019A00002A900F041FA00220521402000F096FF34
:1019B000402000F085FF00220521412000F08EFF2D
:1019C000412000F07DFFC0E70064004038020020A5
:1019D00030380240000402400068004070470000B8
:1019E0002DE9F0412DED048B00217A4B7A4AFFF767
:1019F00032FD794E794D06F14F04306804F1AD02A5
:101A000011286CD009DC734F9FED758B08280BD023
:101A1000092829D0102826D146E012287CD0132886
:101A200079D01728F7D1ADE03878797840EA0120ED
:101A300000B206F0C8FA53EC182B06F02BFB06F0A8
:101A400019F82864B878F97840EA012000B206F065
:101A5000BAFA53EC182B06F01DFB06F00BF868647D
:101A60006078401C6070AEE03878797840EA0120F8
:101A700000B206F0A8FA53EC182B06F00BFB05F0A9
:101A8000F9FFA864B878F97840EA012000B206F0BE
:101A90009AFA53EC182B06F0FDFA05F0EBFFE86418
:101AA000A078401CA0708EE04A48FEF707FE5080E8
:101AB0000746E86E06F018FD41EC180B384606F0B4
:101AC00099FA41EC100BB0EE481AF0EE681A02F0E9
:101AD0009BFF85ED170AE078401CE07073E03D48FD
:101AE000FEF7ECFD90800746286F06F0FDFC41EC08
:101AF000180B384606F07EFA41EC100BB0EE481A8F
:101B0000F0EE681A02F080FF85ED180A2079401C7B
:101B1000207158E000E01AE02E48FEF7CFFDD0809B
:101B20000746686F06F0E0FC41EC180B384606F0FB
:101B300061FA41EC100BB0EE481AF0EE681A02F0B0
:101B400063FF85ED190A6079401C60713BE0214814
:101B5000FEF7B4FD10810746A86F06F0C5FC41EC06
:101B6000180B384606F046FA41EC100BB0EE481A56
:101B7000F0EE681A02F048FF85ED1A0AA079401CC1
:101B8000A07120E01348FEF799FD00EE100A134FF4
:101B9000B8EE409A803787ED129AE88E06F02AFA5E
:101BA00041EC180B19EE100A06F09EFC41EC100BEC
:101BB000B0EE481AF0EE681A02F026FF87ED130A1D
:101BC000E079401CE07100203060BDEC048BBDE882
:101BD000F0810000280200204804002000000020BE
:101BE000000000000000B03F7047000070B53A4BA5
:101BF0003A4A0121FFF72FFC3848394C0088C0F3DE
:101C00004711E17000F01F002071344D5435092850
:101C10002AD013DC01281CD003283AD02F4DB83528
:101C2000042842D0052808D10020FEF725FDBCEE8F
:101C3000C00AE17810EE100A685470BD14283ED036
:101C400015281DD01728F8D123483038006BE063E1
:101C500070BD22481C30425C521C42541E481F4A30
:101C60003D320079505470BD0120FEF705FDE0784B
:101C700005EB800181ED000ABDE87040FEF79EBCD7
:101C80000120FEF7F9FCE07805EB800080ED000A0A
:101C900070BD0120FEF7F0FCBCEEC00A0F49E278EF
:101CA00010EE100AA431885470BD0120FEF7E4FC48
:101CB000BCEEC00AE17810EE100A685470BD012035
:101CC000FEF7DAFCBCEEC00A0449E27810EE100A16
:101CD000CC31885470BD0000300200206404002024
:101CE00000000020704770B5044694F820000128D9
:101CF00005D0606A40F400206062012070BD0220BF
:101D000084F820002068016821F00101016000F0E2
:101D10007BF905460DE000F077F9401B0A2808D949
:101D2000606A40F400306062052084F820000120E1
:101D300070BD20684068C007EDD1606270BD70471B
:101D40007047704770477047704770472DE9F04102
:101D50000446A76D00F058F9054694F835000026B2
:101D6000022806D08020606584F834600120BDE838
:101D7000F0812068016821F0160101602068416946
:101D800021F080014161206C08B9A06C20B120686D
:101D9000016821F0080101602068016821F001015B
:101DA00001600BE000F030F9401B052806D9202027
:101DB00034342062032060702670D8E72068006801
:101DC000C007EFD134343F2094F828108840B86021
:101DD0000120607026700020C9E790F835100229B4
:101DE00003D08021416501207047052180F835101E
:101DF0000068016821F0010101600020704790F83F
:101E00003500704770B5044600F0FEF80546601CCA
:101E100002D004480078044400F0F6F8401BA042C9
:101E2000FAD370BD3C0200202DE9F84F0022DFF804
:101E300094914FF0010803274FF00F0C09F1040AA9
:101E4000A9F1040B08FA02F50B682B40AB426ED1E6
:101E50000C7904F00304012C01D0022C15D1866802
:101E6000540007FA04FE26EA0E06D1F80CE00EFA3A
:101E700004FE4EEA060EC0F808E04468AC430D7953
:101E8000C5F300159540254345600C79E443A4074C
:101E900008D0C568540007FA04F6B5438E68A6401A
:101EA0002E43C6600C7904F00304022C11D1D4082F
:101EB00000EB8406356A5407E40E0CFA04FE25EAAA
:101EC0000E05D1F810E00EFA04FE4EEA050EC6F833
:101ED00020E00568540007FA04F6B5430E7906F0D1
:101EE0000306A6402E4306604C6814F4403F62D0BF
:101EF000354C256845F480452560246804F4804409
:101F00000094324C22F003052E19D6F80858940795
:101F10004FEA147E0CFA0EF4A5432D4CA04201D1D9
:101F200000241FE02B4CA04202D101241AE042E021
:101F3000294CA04201D1022414E0284CA04201D136
:101F400003240FE0264CA04201D104240AE0254CD2
:101F5000A04201D1052405E0234CA04201D1062472
:101F600000E0072404FA0EF42C43C6F80848D9F818
:101F700000409C434D68ED0200D51C43C9F8004069
:101F8000DAF800409C434D68AD0200D51C43CAF806
:101F90000040DBF800409C434D68AD0300D51C4376
:101FA000CBF80040074D083D2C689C434E68F60373
:101FB00000D51C432C60521C102AFFF443AFBDE82F
:101FC000F88F0000083C01404438024000300140D6
:101FD000000002400004024000080240000C0240E1
:101FE000001002400014024000180240006908423C
:101FF00001D00120704700207047002A01D0816184
:10200000704709048161704701488068704700008B
:102010003C020020704770472DE9F0410546002141
:102020002B685A68EE6A95F83E4095F83D00102CF2
:1020300005D0402C03D02C6CECB35C696EE09F693A
:102040005969C9435FEAC17C05D0B6F52A0F7CD037
:10205000B6F12A4F79D0CE070AD1D643B60507D4B8
:10206000284601F063FB2846BDE8F04101F016BFA9
:102070000E0707D4D643B60504D42846BDE8F04180
:1020800001F02CBE8E0707D4D643B60504D42846EB
:10209000BDE8F04101F038BEFE43760723D45B680B
:1020A0001B0552D40B060BD4D3435B0508D44B0756
:1020B00006D5284600E02FE0BDE8F04101F0AFBDB5
:1020C000490775D4D143890572D4212806D0402C04
:1020D0006ED12846BDE8F04101F030BF2846BDE88A
:1020E000F04101F057BD5868000561D4480609D495
:1020F000D043400506D4480704D52846BDE8F04142
:1021000001F0D3BC480753D4D043800550D42846AF
:10211000BDE8F04101F043BC99695C69E443A6075E
:102120000AD4D643B60507D4286C00B1996928466D
:10213000BDE8F04102F0C4B8E10609D4D1438905F5
:1021400006D42846BDE8F04100E031E002F0DCB8FA
:1021500021280DD029280BD060061FD4D04340057C
:102160001CD460071AD52846BDE8F04102F056B8E5
:10217000200609D4D043400506D4600704D528467C
:10218000BDE8F04102F07AB8600711D4D043800571
:102190000ED42846BDE8F04102F062B8600707D4CB
:1021A000D043800504D42846BDE8F04102F028B8A9
:1021B000BDE8F0817047000070B50446002C04D0E3
:1021C00094F83D00002510B106E0012070BD84F8B0
:1021D0003C50204600F0B2FA242084F83D002068EC
:1021E000016821F0010101602068016841F40041AB
:1021F00001602068016821F40041016000F0A4FC46
:102200004F4B6168994203D84E49884203D304E09A
:102210004D49884201D2012070BD4C49B0FBF1F11B
:102220002268566826F03F060E43566062689A425E
:1022300001D8491C07E04FF4967251434FF47A726B
:10224000B1FBF2F1491C2268166A26F03F063143C1
:1022500011626168994210D84900401EB0FBF1F24A
:10226000521CC2F30B02042A01D2042022E0B0FB6C
:10227000F1F0401CC0F30B001CE0A268F2B301EBCC
:10228000C10303EB0116431EB3FBF6F35B1C43F4DF
:1022900080431B0549D092B301EBC10202EB01114F
:1022A000401EB0FBF1F0401CC0F30B0040F4804036
:1022B00040F400402168CA694CF6FF739A4310430A
:1022C000C861D4E9071001432068026822F0C00207
:1022D00011430160D4E9030101432068826848F298
:1022E000FF339A4311438160D4E90510014320680C
:1022F000C26822F0FF021143C16001E00EE016E067
:102300002068016841F0010101602564202084F803
:102310003D00256384F83E50002070BD01EB41066E
:10232000431EB3FBF6F35B1CB3E70120C2E701EBEE
:102330004101401EB0FBF1F0401CC0F30B00B7E7B9
:10234000A086010080841E0000093D0040420F006D
:102350007047704770477047704700002DE9FF4F86
:1023600083B00446DDE911988A469346109FFFF733
:102370004BFE054694F83D00202803D0022007B00C
:10238000BDE8F08F1923012298492046009502F0FC
:1023900097F808B10220F2E794F83C00012807D032
:1023A000012084F83C0020680168C90702D005E0DC
:1023B0000220E4E7016841F0010101602068016842
:1023C00021F400610160222084F83D00402084F85F
:1023D0003E00002626646762A4F82A90608D20855E
:1023E0008348E062CDE900855A4651462046069B67
:1023F00001F004FE08B10120C1E7208D48B1012899
:1024000010D002281CD02068416980690290794F61
:10241000E1E02068416981690291016841F400713D
:102420000160F4E72068016821F4806101602068A0
:10243000416981690291016841F400710160E6E738
:102440002068016821F4806101602068016841F41E
:10245000006101602068416980690290D7E7032824
:102460007ED801280BD002281FD0434600223946CF
:102470002046009502F024F8F0B301207FE72A46B9
:102480004146204602F0D6F808B1012077E72068DF
:102490000069616A0870606A401C6062208D401E9D
:1024A0002085608D401E608595E0434600223946B8
:1024B0002046009502F004F808B101205FE720688B
:1024C000016841F40071016020680069616A087068
:1024D000606A401C6062218D491E2185618D491E04
:1024E0006185216809690170606A401C6062208D05
:1024F000401E2085608D00E002E0401E60856AE09D
:102500002068016821F48061016020680069616AC7
:102510000870606A401C6062208D401E2085608DBE
:10252000401E60854346002239462046009501F052
:10253000C7FF08B1012022E72068016841F400715B
:10254000016020680069616A0870606A401C60620E
:10255000218D491E2185618D491E6185216800E01C
:102560000BE009690170606A401C6062208D401EAA
:102570002085608D401E60852DE02A46414620461C
:1025800002F058F808B10120F9E620680069616A94
:102590000870606A401C6062208D401E81B22185F7
:1025A000608D401E608520684269D243520712D474
:1025B000032903D1016821F480610160206800696A
:1025C000616A0870606A401C6062208D401E208530
:1025D000608D401E6085208D00287FF440AF202054
:1025E0003C346070A67026700020C8E6020010001F
:1025F0000000FFFF040001002DE9FF4F83B00446F7
:10260000DDE911988A469346109DFFF7FDFC0646CA
:1026100094F83D00202803D0022007B0BDE8F08FD9
:102620001923012243492046009601F049FF08B1D1
:102630000220F2E794F83C00012807D0012084F83A
:102640003C0020680168C90702D005E00220E4E7E9
:10265000016841F0010101602068016821F4006116
:102660000160212084F83D00402084F83E000027CE
:1026700027646562A4F82A90608D20852E48E06268
:10268000CDE900865A4651462046069B01F056FD8C
:1026900080B30120C1E732464146204602F024F8CB
:1026A00048B1206C042804D12068016841F400710D
:1026B00001600120B1E7606A216800780861656AFD
:1026C0006D1C6562208D401E80B22085618D491E83
:1026D000618523685969C94349070BD450B12878EB
:1026E0001861606A401C6062208D401E2085608DEC
:1026F000401E6085208D0028CDD1324641462046BF
:1027000001F0B2FE48B1206C042804D120680168B1
:1027100041F40071016001207FE71F3454F81F0C61
:10272000016841F4007101602020A077E7776777A6
:10273000002072E7020010000000FFFF10B586B015
:102740000446142101A8FDF7C6FE174920688842F7
:1027500028D11648016841F002010160006800F0CC
:1027600002000090C02001901220029001200390EE
:10277000032004900420059001A90D48FFF754FBA5
:102780000A481030016841F400110160006800F44B
:1027900000100090002205211F2000F09FF81F204C
:1027A00000F08EF806B010BD0054004030380240F2
:1027B0000004024070477047024881680278114463
:1027C000816070473C02002010B50B48016841F45D
:1027D00000710160016841F480610160016841F4A9
:1027E00080710160032000F099F80F2000F006F8D6
:1027F00000F04AF8002010BD003C024030B587B020
:10280000054600241B48016841F001010160006891
:1028100000F00100009001A902A800F071F900F099
:10282000A3F940001449B0FBF1F1491E1448134AC2
:10283000026040F2E732C2604160046184608461FA
:1028400000F0F8FB044694B90D4800F037FC04464C
:102850006CB9192000F034F8102D07D20022294657
:10286000192000F03BF80748056000E0012407B09C
:10287000204630BD4438024040420F000000014075
:10288000540800204002002082B00C48016841F446
:1028900080410160006800F4804001900748001FFB
:1028A000016841F080510160006800F080500190A3
:1028B00000220F21901E02B000F010B844380240F0
:1028C000002809DB00F01F0201219140400980002F
:1028D00000F1E020C0F8001170470000F0B40D4690
:1028E0000D4B1B68C3F30223C3F10704042C00D96A
:1028F0000424191D072901D2002300E0DB1E012654
:1029000006FA04F1491E294099409E40761E164061
:102910003143F0BC03F0CEB90CED00E000F007014C
:10292000054A10684FF6FF03184040EA01200349AA
:1029300008431060704700000CED00E00000FA054D
:102940002DE9F8431848016841F0805101600068A2
:1029500000F080500090DFF854800127C8F84070E4
:10296000FFF752FB05464FF47A76114C07E0FFF76C
:102970004BFB401BB04202D90320BDE8F8836068DE
:10298000C003F4D5C8F84470FFF73EFB054606E0E7
:10299000FFF73AFB401BB04201D90320EDE7606826
:1029A0008003F5D50020E8E74038024000000E42E1
:1029B000007000402DE9F04704460D46002C13D06E
:1029C000DFF82891D9F80000EFB200F00F00A8421C
:1029D0000CD289F80070D9F8000000F00F00A8426E
:1029E00004D00120BDE8F0870120FBE72068404EBD
:1029F000810712D5400703D5306840F4E0503060BD
:102A00002078000703D5306840F4604030603068BB
:102A1000A16820F0F000084330602078C00731D072
:102A2000334960680839012808D002280BD00328F0
:102A300009D0096889070BD40120D3E70968890305
:102A400006D40120CEE70968890101D40120C9E735
:102A5000316821F0030101433160FFF7D5FA804668
:102A600041F2883A07E0FFF7CFFAA0EB08005045A3
:102A700001D90320B6E73068616800F00C00B0EBC4
:102A8000810FF0D1D9F8000000F00F00A84209D959
:102A900089F80070D9F8000000F00F00A84201D0BA
:102AA00001209FE72078400705D53068E16820F4D1
:102AB000E050084330602078000706D5306821696F
:102AC00020F4604040EAC100306000F05DF83168F9
:102AD000084AC1F30311515CC84007490860074820
:102AE0000068FFF78BFE00207CE70000003C0240FE
:102AF00008380240348600084802002040020020C6
:102B00000F2202600B4A136803F00303436013684B
:102B100003F0F0038360136803F4E053C3601268AA
:102B200002F46042D20802610348006800F00F001E
:102B30000860704708380240003C024001480068C5
:102B4000704700004802002000B5FFF7F7FF044976
:102B50000968044AC1F38221515CC84000BD0000ED
:102B6000083802404486000800B5FFF7E7FF044933
:102B70000968044AC1F34231515CC84000BD0000FD
:102B8000083802404486000810B52648006810F056
:102B90000C01254818D04310042914D0214C241FBF
:102BA000082912D00C290FD1216801F03F022168B9
:102BB000490229D52068C0F38810A0FB0301002337
:102BC000FDF7E0FB28E0184610BD216801F03F0248
:102BD0002168490208D52068C0F38810A0FB0301D2
:102BE0000023FDF7CFFB07E021680023C1F3881124
:102BF000A1FB0001FDF7C6FB2168C1F30141491C9F
:102C00004900B0FBF1F010BD21680023C1F3881129
:102C1000A1FB0001FDF7B6FB2168C1F30271B0FB17
:102C2000F1F010BD083802400024F4002DE9F84FFF
:102C30000446002C11D02078F74FC007A7F10405F7
:102C40005CD0381D0168C1F38101012913D00168EE
:102C5000C1F38101022903D005E00120BDE8F88F0E
:102C60003968490207D40068C0F38100032809D1FC
:102C70003868400206D5286880033FD5606870BB7D
:102C80000120EBE76068B0F5803F10D0B0F5A02FD1
:102C900012D0286820F480302860286820F4802032
:102CA00028606068E0B1FFF7AFF9064614E02868D5
:102CB00040F480302860F4E7286840F480202860E1
:102CC000286840F480302860EBE7FFF79DF9801B0F
:102CD000642801D90320C1E728688003F5D50DE0F9
:102CE000FFF792F9064606E0FFF78EF9801B64288D
:102CF00001D90320B2E728688003F5D42078DFF8F3
:102D00001C8380074FF0000950D5C348001D01689F
:102D100011F00C0F0FD00168C1F38101022902D11B
:102D20003968490207D50068C0F38100032812D131
:102D3000386840020FD42868800704D5E06801286D
:102D400001D001208AE72868216920F0F80040EAD4
:102D5000C10028602AE0E068C0B10120C8F8000086
:102D6000FFF752F9064606E0FFF74EF9801B0228EE
:102D700001D9032072E728688007F5D52868216902
:102D800020F0F80040EAC10028600FE0C8F8009089
:102D9000FFF73AF9064606E0FFF736F9801B0228EE
:102DA00001D903205AE728688007F5D42078000766
:102DB00027D5994E9A486169703689B10121016021
:102DC000FFF722F9824607E0FFF71EF9A0EB0A00A1
:102DD000022801D9032041E730688007F4D510E0CC
:102DE000C0F80090FFF710F9824607E0FFF70CF9F2
:102DF000A0EB0A00022801D903202FE730688007E2
:102E0000F4D4207840076ED54FF0000A82483C3059
:102E10000068C0000BD480483C30016841F080510C
:102E20000160006800F0805000904FF0010ADFF868
:102E3000F4B1DBF80000C00514D4DBF8000040F466
:102E40008070CBF80000FFF7DFF8064606E0FFF7DA
:102E5000DBF8801B022801D90320FFE6DBF8000025
:102E6000C005F4D5DFF8B0B1A0680BF16C0B0128F8
:102E700013D0052818D0DBF8000020F00100CBF8B3
:102E80000000DBF8000020F00400CBF80000A06890
:102E900028B3FFF7B9F806461CE0DBF8000040F065
:102EA0000100CBF80000F2E7DBF8000040F004007E
:102EB000CBF80000DBF8000040F00100CBF8000088
:102EC000E5E7FFF7A1F8811B41F28830814201D983
:102ED0000320C3E6DBF800008007F2D511E0FFF71E
:102EE00093F8064609E015E0FFF78EF8811B41F2E2
:102EF0008830814201D90320B0E6DBF8000080076A
:102F0000F2D4BAF1010F05D143483C30016821F0F9
:102F100080510160A069D8B33F49091D09684FF08D
:102F2000FF36C1F38101022949D0022805D0C8F833
:102F30006090FFF769F804463DE0C8F86090FFF73D
:102F400063F8814607E0FFF75FF8A0EB090002286D
:102F500001D9032082E628688001F4D454F81C0FBC
:102F60006168E2680843A16806EB5202890141EA00
:102F700002410843217C40EA0160217D40EA017062
:102F800038600120C8F86000FFF73EF8044607E00B
:102F90004CE0FFF739F8001B022801D903205DE659
:102FA00028688001F5D541E0FFF72EF8001B0228C4
:102FB00001D9032052E628688001F5D436E00128C3
:102FC00032D03868E26900F48001914221D1226A4E
:102FD00000F03F0191421CD147F6C071626A014086
:102FE000B1EB821F15D1A26A00F4403106EB520208
:102FF000B1EB024F0DD194F82C2000F07061B1EBD1
:10300000026F06D194F8301000F0E040B0EB017F81
:103010000CD0012022E600000438024000004742A4
:10302000800E474200700040012017E6002015E6A0
:103030007047704710B50446002C03D094F83D004B
:1030400010B107E0012010BD002084F83C002046AC
:1030500000F016F8022084F83D00211D206802F0DF
:1030600021FC01203D3460726070A070E07020711E
:103070006071A071E07120722070002010BD00000E
:1030800008B500680B49884212D10B48016841F429
:1030900080710160006800F48070009000220521BA
:1030A0002D20FFF71BFCBDE808402D20FFF708BCD2
:1030B00008BD0000002000404038024090F83D105C
:1030C000012901D001207047022180F83D100168DC
:1030D000CA6842F00102CA6000681449884214D0EC
:1030E000B0F1804F11D0124988420ED01149884268
:1030F0000BD01149884208D01049884205D01049A8
:10310000884202D00F49884209D1816801F0070145
:10311000062908D0016841F00101016003E001685F
:1031200041F00101016000207047000000000140F3
:103130000004004000080040000C00400004014072
:10314000004001400018004070472DE9F04104465E
:103150002068C56806694FF00007B10714D5A907B4
:1031600012D5F91E0161012020772068806980074F
:1031700003D02046FFF7E8FF05E0204600F081F885
:10318000204600F07FF82777700717D5680715D518
:1031900021686FF0040008610220207720688069B0
:1031A00010F4407F03D02046FFF7CEFF05E0204615
:1031B00000F067F8204600F065F82777300716D54D
:1031C000280714D521686FF00800086104202077D3
:1031D0002068C069800703D02046FFF7B5FF05E0EF
:1031E000204600F04EF8204600F04CF82777F00615
:1031F00017D5E80615D521686FF010000861082082
:1032000020772068C06910F4407F03D02046FFF784
:103210009BFF05E0204600F034F8204600F032F82D
:103220002777F00708D0E80706D021686FF0010083
:103230000861204600F028F8300608D5280606D593
:1032400021686FF0800008612046FFF7F1FE7006EC
:1032500008D5680606D521686FF040000861204651
:1032600000F01CF8B0060AD5A80608D521686FF052
:10327000200008612046BDE8F041FFF7DABEBDE856
:10328000F08170477047000000680349884201D10F
:10329000FFF792BA70470000000001407047704786
:1032A00070470000F8B5044622681068D168536979
:1032B00000F00F06002E08D1850606D58D0604D530
:1032C0002046BDE8F84002F0A3BB0025002E66D0E2
:1032D00003F0010601F49077374360D0C20705D0B0
:1032E000CA0503D5626C42F001026264420705D54B
:1032F000DA0703D0626C42F002026264820705D5ED
:10330000DA0703D0626C42F004026264020707D558
:1033100001F02002324303D0626C42F00802626482
:10332000626C002A31D0800604D5880602D520467A
:1033300002F06EFB20684069C0F38010616C0907E1
:1033400000D438B3204602F02FFB206840694006C5
:103350001CD52068143050E8001F21F0400140E8DF
:103360000012002AF5D1E06B60B159490165E06BAC
:10337000FEF733FD002808D0E06B016D01B0BDE819
:10338000F04008472046FFF78BFFF8BD2046FFF7C7
:1033900087FFF8BD2046FFF783FF6564F8BD236B08
:1033A000012B7DD1C3067BD5CB067FD51068506835
:1033B000009050694FF0200340064FF0020644D5BC
:1033C000E16B0868406880B20028E7D0A28D824295
:1033D000E4D9E085C869B0F5807F2DD020680C3035
:1033E00050E8001F21F4807140E80012002AF5D156
:1033F0002068143050E8001F21F0010140E800125D
:10340000002AF5D12068143050E8001F21F0400157
:1034100040E80012002AF5D184F842302563206884
:103420000C3050E8001F21F0100140E80012002A83
:10343000F5D1E06BFEF78AFC6663A08DE18D401A42
:1034400081B22046FFF72BFFF8BDA08DE18D401A19
:1034500081B2E08D0028F7D00029F5D020680C302B
:1034600050E8002F22F4907240E80027002FF5D199
:103470002068143050E8002F22F0010240E80027B5
:10348000002FF5D184F84230256320680C3050E8D5
:10349000002F22F0100240E80023002BF5D100E0BD
:1034A00004E066632046FFF7FAFEF8BD020606D583
:1034B0000A0604D52046BDE8F84002F0B3BB40063A
:1034C000F3D54806F1D52046BDE8F84002F093BA9E
:1034D0009959000870B50446002C04D094F84100B6
:1034E000002510B106E0012070BD84F84050204650
:1034F00000F024F8242084F841002068C16821F4F9
:103500000051C160204602F0E7FA2068016921F409
:10351000904101612068416921F02A0141612068E0
:10352000C16841F40051C1606564202084F8410005
:1035300084F842006563002070BD0000F0B587B0DC
:103540000446142102A8FCF7C6FF3448324B216818
:103550000025324A1038032402260827994222D136
:10356000116841F400211160116801F400210191FA
:10357000016841F001010160006800F00100019064
:103580000294039604950594069702A92448FEF731
:103590004BFC002205213420FFF7A0F93420FFF76F
:1035A0008FF907B0F0BD1F4B9942FAD1116841F471
:1035B00080111160116801F480110191016841F0DE
:1035C00004010160016801F004010191016841F00A
:1035D00008010160006800F0080001909814029052
:1035E000039604950594069702A90F48FEF71CFC64
:1035F00004200290039604950594069702A90B48AF
:10360000FEF712FC002205213520FFF767F935206F
:10361000FFF756F9C5E70000004C00404038024073
:10362000000002400050004000080240000C024030
:1036300090F84230202B01D00220704721B11AB1FE
:103640000023036302F0D2BA0120704710B50822AC
:1036500004490548FFF7ECFF04480178491C017054
:1036600010BD000010020020E80300200000002030
:1036700090F84130202B01D00220704779B172B10F
:1036800001628284C28400214164212180F84110BA
:103690000068C16841F08001C160002070470120CE
:1036A00070477047FEE700002DE9F0410446194FCE
:1036B000012202213846FEF7A0FC012204213846EF
:1036C000FEF79BFC02F04AF840F2DC56124D0DE08A
:1036D000204601F02FFA304603F034FC0222082184
:1036E000204601F073FB304603F02CFC285D0828CF
:1036F000EED10A49002081F8290000220221384633
:10370000FEF77BFC3846BDE8F04100220421FEF7BD
:1037100074BC000000040240A1040020000000204E
:103720000148FEF779BC000004030020C16AB1F52E
:103730002A0F06D0C16AB1F12A4F01D10821C16216
:1037400070470121C162704738B50022806B90F844
:103750003D302B4946F2A8140968B1FBF4F1C1EBE6
:10376000C10101EB81010091009969B30099491EE3
:103770000091016809688905F6D4416B01B1CA63FB
:10378000816B01B1CA6301680C6824F480640C6029
:103790004285416B01B10A65816B01B10A6501681F
:1037A0000C6824F001040C6090F83D10202460297E
:1037B0000FD0282535EA030113D080F83D4080F86A
:1037C0003E20FEF7F7FC38BD016C41F0200101649A
:1037D000D3E780F83D4080F83E200264FEF71AFCF3
:1037E00038BD01680B6843F001030B6001680B688A
:1037F00043F480630B60026380F83D50E1E7000012
:103800004802002000684169C943090601D400212B
:103810000161704770B5044694F83D0094F83E107D
:10382000102901D0402906D1222804D121680A6834
:1038300022F400620A60282131EA00024FF00005FC
:103840004FF0200628D021684968090505D4602872
:1038500003D084F83D6084F83E50256320684168B9
:10386000090539D5416821F400614160606B90F829
:1038700035203D49012A13D00165606BFEF7ADFA92
:1038800048B32068016821F00101016084F83D60BF
:10389000606B016D884730E0256384F83D10DDE7FB
:1038A000A06B0165A06BFEF798FAA0B12068416992
:1038B000C943490605D40069616A0870606A401C02
:1038C00060622068016821F00101016084F83D60B8
:1038D000A06B016D884710E094F83D10602910D06E
:1038E0004169C943490605D40069616A0870606A84
:1038F000401C60622046FEF75DFC206CC1071CD1B5
:1039000015E084F83D6025644169C943490605D442
:103910000069616A0870606A401C60622068016822
:1039200021F0010101602046FEF774FBE5E7810705
:1039300003D4410701D4000704D52068416821F46D
:10394000E061416094F83D00216C49070BD52828BF
:1039500009D10648E062256384F83D6084F83E5052
:103960002046FEF7F5FC70BD493700080000FFFF58
:1039700001684A69D24352050FD46FF480624A61EC
:10398000002140F8301F202242738173026942F007
:10399000040202610173012070470020704710B5D6
:1039A000C26A438D0168042B0FD0438D032B1BD0BB
:1039B000438D022B30D00969426A1170416A491C5B
:1039C0004162418D491E418510BD4A6822F48062E2
:1039D0004A6001680969426A1170416A491C416282
:1039E000418D491E418510BD4B6823F480634B60B7
:1039F000042A06D0022A04D001680A6822F48062F0
:103A00000A6001680969426A1170416A491C416291
:103A1000418D491E418510BD012A34D0102A32D073
:103A2000042A35D0022A33D00B6843F400730B60AC
:103A300001680969436A1970416A491C4162438DF2
:103A40005B1E438503681B690B70416A491C416218
:103A5000418D491E418501684B6823F440734B60DA
:103A6000202180F83D1090F83E300021402B14D0EA
:103A700080F83E10082A16D0202A14D012210163A3
:103A8000FEF767FC10BD0B6823F480630B60CFE783
:103A90000B6843F480630B60CAE780F83E10016353
:103AA000FEF759FC10BD0163EAE770B5044694F8CF
:103AB0003D00222815D1E56A608D032812D92068BF
:103AC0000069616A0870606A401C6062608D401E17
:103AD0006085608D032804D12068416821F48061ED
:103AE000416070BDE16A022902D0012806D028B1E8
:103AF0002068416821F48061416070BD204600F07B
:103B0000D5FD20220021B0B12068436823F4E06392
:103B1000436020680069636A1870606A401C6062D4
:103B2000608D401E608584F83D2084F83E1020465C
:103B3000FEF740FB70BD2068036823F480630360D8
:103B40002068436823F4E063436020680069636A87
:103B50001870606A401C6062608D401E608584F849
:103B60003D2094F83E0040280BD084F83E10082DEC
:103B70000ED0202D0CD0122020632046FEF7E9FB4A
:103B800070BD84F83E1021632046FEF7E4FB70BD53
:103B90002163F2E710B5C16A90F83D20212A0BD1CC
:103BA000428D52B1416A026809781161416A491C2B
:103BB0004162418D491E418510BD20230022082904
:103BC00012D0202910D011F5803F0DD001684C682B
:103BD00024F4E0644C601121016380F83E2080F8F9
:103BE0003D30FEF7B7FB10BD01684C6824F4E0647B
:103BF0004C6001680C6844F400740C60026380F847
:103C00003D3090F83E10402904D080F83E20FEF769
:103C1000A1FB10BD80F83E20FEF79EFB10BD10B545
:103C200090F83D1090F83E30C26A048D002C01D10E
:103C3000212916D0212903D0402B11D122290FD1BF
:103C4000418DD9B390F83E10402943D0416A0268B3
:103C500009781161416A491C4162418D491E4185C3
:103C600010BD20240023082A12D0202A10D012F5DB
:103C7000803F0DD001684A6822F4E0624A60112159
:103C8000016380F83E3080F83D40FEF763FB10BDD5
:103C900001684A6822F4E0624A6001680A6842F4F6
:103CA00000720A60036380F83D4090F83E1040299E
:103CB00005D080F83E30FEF74DFB10BD04E080F8E3
:103CC0003E30FEF749FBF8E70068416821F4806167
:103CD0004160F2E7BDE8104000F030B9416C026885
:103CE000C9B21161416B002901D0C96B29B9816B3F
:103CF000002907D0C96B002904D00068416841F44D
:103D0000006141607047000078B590F83E40C26A9B
:103D1000056B90F83D6000230168222E03D04869AE
:103D20008869009078BD066D0EB9402C02D0046DF4
:103D300024B107E048698869009078BD0469B4F54A
:103D4000404F1BD0448D24B3468D534C012E28D0B8
:103D5000458D022D69D00D6845F480650D600168C0
:103D60004D682D0509D5A2426FD0012A6DD0082AD1
:103D70006BD0102A69D0202A67D086E04A698A6908
:103D800000920A6842F480720A60016D491C016564
:103D900078BD4A698A6900920A6842F400720A6032
:103DA00077E0A24218D10A6822F480620A600168B2
:103DB0004A68120508D50A6822F480620A60016820
:103DC0004A698969009164E04A698A6900920A68CF
:103DD00042F400720A605CE0082A05D0202A03D071
:103DE000122D0ED1012A0CD00A6822F480620A60DA
:103DF00001684A698A6900920A6842F400720A609E
:103E000047E0042A08D0022A06D0102A04D00A6803
:103E100022F480620A6003E00A6842F480620A6069
:103E200001684A698969009133E0042A0ED0022AA8
:103E30000CD0102A0AD00D6825F480650D60016849
:103E40000D6845F400650D6004E01AE00D6845F466
:103E500080650D6001684D682D050DD5A24207D023
:103E6000012A05D0082A03D0102A01D0202A03D124
:103E70004A6842F480524A6001684A69896900913F
:103E800007E04A6842F480524A6001684A698969D9
:103E90000091036578BD00000000FFFF90F83E1020
:103EA000402911D00169B1F5804F1CD0016D79B363
:103EB000016D012907D1416C006801F44071F122C4
:103EC00042EAD11101617047016D31B1416C006866
:103ED000C9B241F0010101617047416C006801F015
:103EE000FE010161704790F83D1021290AD0416C14
:103EF0000268C9B241F001011161416B49B1C96B5E
:103F000069B906E0416C026801F0FE011161F4E755
:103F10000BE0816B0029E5D0C96B0029E2D0006875
:103F2000416841F4006141607047416C006801F4F0
:103F30004071F02242EAD1110161704710B590F84A
:103F40003D10026D002A09D0026D012A1AD0026DBF
:103F5000022A1FD0BDE81040FFF754BCC16C0129F4
:103F600008D0816C0268C1F307211161016D491C01
:103F7000016510BD816C0268C9B21161016D891CB7
:103F8000016510BD816C0268C9B21161016D491CE7
:103F9000016510BD22291CD0428D0AB1212921D0F2
:103FA000428D002AF5D12129F3D101684A6822F413
:103FB000E0624A6001680A6842F400720A60002107
:103FC0000163202280F83D2080F83E10FEF7C4F9FE
:103FD00010BD01680A6842F480720A60016D491CD4
:103FE000016510BD416A026809781161416A491C86
:103FF0004162418D491E418510BD00002DE9F84FF9
:1040000004460B9E0F4690461D462068016841F409
:10401000806101602068016841F480710160009650
:104020004FF0011A0022514620460A9B00F048FA40
:104030004FF4007940B120680068C00501D5C4F88C
:1040400040900320BDE8F88F216807F0FE0008616A
:10405000DFF8E4B03346594620460A9A00F086FA63
:1040600008B10120EEE7206841698069009032467E
:1040700020460A9900F038FB48B1206C042804D18E
:104080002068016841F4007101600120DAE72846E8
:1040900008F0FF0501280DD021684FEA18200861BB
:1040A000324620460A9900F01FFB68B1206C0428B4
:1040B00003D007E02068056108E02068016841F44A
:1040C000007101600120BDE720680561324620468D
:1040D0000A9900F009FB48B1206C042804D120683B
:1040E000016841F4007101600120ABE720680168BC
:1040F00041F48071016000960022514620460A9BDF
:1041000000F0DEF938B120680068C00501D5C4F8B8
:104110004090032096E72168F8B240F00100086162
:104120003346594620460A9A00F020FA08B1012089
:1041300088E7002086E70000020001002DE9F8432F
:104140000446DDE908970D46164698462068016842
:1041500041F4807101604B4600224FF0011120466E
:10416000009700F0ADF948B120680068C00502D59D
:104170004FF4007020640320BDE8F883216805F047
:10418000FE0008613B464A461C49204600F0EEF915
:1041900008B10120F0E720684169806900903A4643
:1041A0004946204600F0A0FA48B1206C042804D10A
:1041B0002068016841F4007101600120DCE7F5B27C
:1041C000B8F1010F0CD02168300A08613A4649461F
:1041D000204600F089FA68B1206C042803D007E07B
:1041E0002068056108E02068016841F40071016001
:1041F0000120C1E7206805610020BDE70200010041
:10420000418D002909D001680969426A1170416A2B
:10421000491C4162418D491E4185704710B590F897
:104220003D10428D002A1AD002681269436A1A7042
:10423000426A521C4262428D521E4285428D002AC1
:104240000DD12A290BD101684A6822F480624A60A4
:1042500022210163282180F83D10FEF7ABFA10BD42
:10426000418D002909D0416A026809781161416ACB
:10427000491C4162418D491E4185704710B590F837
:104280003D10428D002A1AD0426A036812781A61E2
:10429000426A521C4262428D521E4285428D002A61
:1042A0000DD129290BD101684A6822F480624A6045
:1042B00021210163282180F83D10FEF77CFA10BD12
:1042C00038B50C46002190F83D202825954302681A
:1042D0000B4605D051699169009180F83C3038BD9A
:1042E000556825F480655560E243540700D50121E7
:1042F000120602D5828992B201E0028B92B280F856
:104300003C30FDF788FE38BDF8B5044694F83D50C2
:104310002068416821F4E06141600026206841691D
:104320000091016841F0010101602068016821F4F9
:104330008061016020684168090520D5484F222D21
:1043400048D02A2D46D0616B096849686185618D26
:1043500019B1216C41F004012164416821F400612C
:104360004160606BFDF74BFD012808D0606B07656D
:10437000606BFDF732FD10B1606B016D8847608D99
:1043800008B320684169C943490708D40069616AD4
:104390000870606A401C6062608D401E6085206805
:1043A0004169C943490608D40069616A0870606AB6
:1043B000401C6062608D401E6085608D18B1206C6D
:1043C00040F004002064206C10B32046BDE8F840A3
:1043D000FFF720BAA16B096849686185618D19B141
:1043E000216C41F004012164416821F400614160C5
:1043F000A06BFDF704FD0128C1D0A06B0765A06B81
:10440000FDF7EBFC0028BAD0A06B016D8847B6E73A
:104410002A2D06D12663282084F83D002046FEF789
:10442000C9F994F83D10202028290DD0216B2229AC
:1044300001D0222D07D1266384F83D0084F83E6028
:104440002046FEF7B7F9F8BD0649E162266384F815
:104450003D0084F83E602046FDF77AFFF8BD00007D
:10446000493700080000FFFF70B504460D461646A8
:104470001FE02046FFF77CFA08B1012070BD681CE0
:1044800017D0FDF7C1FD801BA84200D88DB9206868
:104490004069C04340070CD5002044F8300F20216C
:1044A0006173A073216941F0200121612073012013
:1044B00070BD20684069C0434007DAD4002070BD59
:1044C0002DE9F0470446DDF820900D4690461E4643
:1044D000C5F307472FE0701C2DD0FDF795FDA0EB2D
:1044E0000900B04200D836BB012F17D02068806980
:1044F00025EA00000004000C1BD0002040451AD122
:10450000002044F8300F20216173A073216941F02D
:104510002001216120730120BDE8F08720684069F7
:1045200025EA00000004000C01D00020E6E701208D
:10453000E4E70120E2E7012F0BD02068806925EA3B
:1045400000000004000C0FD000204045C3D0002024
:10455000E2E72068406925EA00000004000C01D071
:104560000020F2E70120F0E70120EEE72DE9F04717
:1045700004460D46164698464FF000094FF0200AB3
:10458000C5F3074743E020684069C043400517D49E
:104590002068016841F40071016021686FF4806057
:1045A0004861C4F8309084F83DA084F83E90206CB7
:1045B00040F00400206484F83C900120BDE8F087BE
:1045C000701C24D0FDF720FDA0EB0800B04200D8FD
:1045D000EEB9012F14D02068806925EA000000049C
:1045E000000C14D0C4F8309084F83DA084F83E90BC
:1045F000206C40F02000206484F83C900120DDE72E
:104600002068406925EA00000004000CEAD1012F6F
:1046100008D02068806925EA00000004000CB2D1AF
:104620000020CBE72068406925EA00000004000C68
:10463000F6D0A8E72DE9F04104460D4616460027BE
:104640004FF020082AE04069C043C0060FD421681B
:104650006FF010004861276384F83D8084F83E7055
:10466000206C206484F83C700120BDE8F081FDF7E7
:10467000CBFC801BA84200D885B920684069C043A4
:1046800040060BD544F8307F84F80D80A77320696D
:1046900040F02000206127730120E6E7206841698F
:1046A000C9434906CFD40020DFE7000008B50D4913
:1046B00046F2A8120968B1FBF2F101EB8101009109
:1046C0000099491E0091009929B10168096889057E
:1046D000F6D4002008BD016C41F0200101640120E6
:1046E00008BD00004802002070B504460D4616467D
:1046F0001FE02046FFF73CF908B1012070BD681C9F
:1047000017D0FDF781FC801BA84200D88DB9206826
:104710004069C04300060CD5002044F8300F20212A
:104720006173A073216941F0200121612073012090
:1047300070BD20684069C0430006DAD4002070BD17
:1047400010B5174A1078AA2828D1D079FF2825D18A
:10475000A2F504719079C877907808B991F8200093
:1047600001F8200FD078887013790B7153794B7052
:104770005278CA702039012308B981F8223091F8A3
:10478000282090420AD091F8274091F822209442A4
:1047900002D00B7581F8272081F8280010BD000099
:1047A0001002002010B58AB01648154901600C218E
:1047B000416000248460C4604FF4302101614FF4F3
:1047C00080114161047644768476C4760477447718
:1047D000FCF7C8FF08B1FCF755FC012008900594D0
:1047E00004940094019402940394069407900E207C
:1047F000099069460348FCF7A5FD0AB010BD00000A
:1048000000640040B402002010B58AB01648154973
:1048100001600C21416000248460C4604FF42021B9
:1048200001614FF400114161047644768476C476C8
:1048300004774477FCF796FF08B1FCF723FC0120CE
:1048400008900E2105910490009401940294039421
:1048500006940790099169460348FCF773FD0AB076
:1048600010BD000000680040DC020020F0B587B0F9
:10487000142102A8FBF72FFE00242948016841F00B
:1048800004010160016801F004010191016841F037
:1048900080010160016801F080010191016841F02F
:1048A00001010160016801F001010191016841F01D
:1048B00002010160016801F002010191016841F00B
:1048C00008010160006800F008000190154F002207
:1048D0000E213846FDF791FB04260296012503952B
:1048E0000494059502A93846FDF79EFA0E20029021
:1048F00003950494059402A93846FDF795FA0296AB
:104900000394049402A90848FDF78EFAE802029085
:104910000394049402A93846FDF786FA07B0F0BD67
:1049200030380240000802400000024010B50C4838
:104930000A4901600B49416000218160C1604FF468
:104940008042026141618161C1610162FDF734FC15
:10495000002801D0FCF796FB10BD00000054004079
:1049600004030020A086010010B50B48094901602E
:1049700042F2273141600021816040F2E732C2609B
:1049800001618161FEF756FB002801D0FCF77AFB3C
:1049900010BD0000002000405803002010B50B4857
:1049A000094901604FF4E131416000218160C1603B
:1049B00001610C2242618161C161FEF78BFD00281B
:1049C00001D0FCF75FFB10BD004C0040A0030020AD
:1049D00010B50B48094901604FF4E13141600021F5
:1049E0008160C16001610C2242618161C161FEF799
:1049F00071FD002801D0FCF745FB10BD00500040C0
:104A0000E8030020FEE7FEE770B52DED048B53ECC4
:104A1000112B51EC100B03F07DFC9FED1E9B0D46FE
:104A2000044645EC104B9FED1D1B51EC100B53EC55
:104A3000112B03F02DFC0AD245EC104B53EC192B33
:104A400051EC100B03F066FC41EC180B01E045EC57
:104A5000184B9FED140B51EC180B53EC102B03F07B
:104A6000DDFA07D253EC192B51EC180B03F034F894
:104A700041EC180B9FED0D0B51EC180B53EC102B68
:104A800003F008FB02F0F6FFBDEC048B00EE100A09
:104A900070BD0000000000000080864000000000A3
:104AA0000080764000000000007076C0000000002A
:104AB0000000E03F2DE9F0411C231C4A00210420A6
:104AC000FCF7E0F9194A1A4E143AD169B1669369B4
:104AD000F366A6F58077906AB866146A7C66556AB4
:104AE0003D673067D26A7267B1F1FF3F00D10021A4
:104AF000B166591C00D10023F366411C04D0014665
:104B0000B966611C02D002E00021F9E700247C664E
:104B1000691C00D100253D67411C00D10020306791
:104B2000501C00D100227267BDE8F081C80500204A
:104B300080010020084904220A6100228A60CA60BC
:104B4000162242EA40100860044BA1F5AA7003F156
:104B50001C02FCF785BB000030040020040200208A
:104B600010B52DED068BB0EE409A3C4C94ED1A0A30
:104B700039EE40AA84ED17AA1AEE100A03F0B4FC2D
:104B800041EC100B04F5807090ED028B51EC100B92
:104B900053EC182B03F054F802F06CFF09EE900A66
:104BA000C4ED189A1AEE100A03F09EFC53EC182B71
:104BB00003F070FA41EC180B606E03F095FC53ECB7
:104BC000182B02F089FF02F055FF00EE100A84ED69
:104BD000190AD4ED1B0A60EE890AFDEEE00A10EE18
:104BE000901AA167D4ED1C0A20EE800ABDEEC00A1F
:104BF00010EE100AE067022801DD022004E06FF0E9
:104C00000102904200DA1046E06794ED1D0A134B52
:104C100020EE290A8033BDEEC00A10EE102A1A6079
:104C20000844104400EE100AB8EEC00A83ED010AF1
:104C300010EE100A0A49884202DD9FED0A0A06E0DA
:104C400010EE100A0849884201D99FED080A83ED49
:104C5000010A84ED1A9ABDEC068B10BD00010020FC
:104C60000000C8420000C8420000C8C20000C8C21C
:104C700010B5012803D0022801D0032801D1B1EEDC
:104C8000400A02230422B1EE400A0121FBF71CFD79
:104C9000BDE81040052002F055B9000010B51849D4
:104CA0008A7A904205D1022304220021FBF70CFDF1
:104CB00020E0CA7A904207D102230422B1EE400AD2
:104CC0000021FBF701FD15E0497B884205D1022355
:104CD00004220021FBF7F8FC0CE0132805D3022383
:104CE00004220021FBF7F0FC04E00223042200214F
:104CF000FBF7EAFCBDE810400A2002F023B90000EF
:104D00000000002070B52DED048B274D95F826107E
:104D100095F8230081421ED003289FED248A1DD0E0
:104D20000024B0EE480A1120FFF7B8FFB0EE480AA1
:104D30001220FFF7B3FFB0EE480A1320FFF7AEFFD3
:104D4000B0EE480A1420FFF7A9FF641C042CE8DB2E
:104D500015F8230FE870BDEC048B70BD0024DFED67
:104D6000148A9FED149AB3EE0E0A1120FFF796FFF6
:104D70000A2002F0E7F8B0EE680A1220FFF78EFF73
:104D80000A2002F0DFF8B0EE490A1320FFF786FF91
:104D90000A2002F0D7F8B0EE480A1420FFF77EFF91
:104DA000641C052CDFDBD3E70000002000000000BE
:104DB0000000704200002042FFF7C2FCFCF7C4F87C
:104DC000FFF7A0FF642002F0BDF8F5E710B50C4A2C
:104DD00011620C4904220A6100228A60CA6007221B
:104DE00002EB40100860064BA1F5AA701B1D03F1F1
:104DF0001C02FCF735FABDE810401420FDF702B89C
:104E00000002002030040020FBF7DAFD00F010F86B
:104E1000FCF764F9FBF784FF052002F093F8F3E751
:104E2000FBF7E2FBFBF762FF642002F08BF8F7E789
:104E30002DE9F0412DED028B0121F74DF7EE000A2F
:104E40004FF040432A7D8E076FF00E009FEDF38AEE
:104E500005F18004002A75D0EA6DB24205DC9A4261
:104E600003D885ED1F8A69750EE0B24201DD024666
:104E700004E0B24201DA0F2200E0002200EE102A24
:104E8000B8EEC00A85ED1F0A2A6EB24205DC9A42CE
:104E900003D884ED008AA9750EE0B24201DD024616
:104EA00004E0B24201DA0F2200E0002200EE102AF4
:104EB000B8EEC00A84ED000A6A6EB24205DC9A427E
:104EC00003D884ED018AE9750EE0B24201DD0F22BC
:104ED00004E0B24201DA024600E0002200EE102AAD
:104EE000B8EEC00A84ED010AAA6EB24205DC9A420D
:104EF00003D884ED028A29760CE0B24204DCB24287
:104F000001DA0F2000E0002000EE100AB8EEC00A1F
:104F100084ED020AC4ED0A0AC4ED090AC4ED080AC8
:104F2000C4ED070A687DA97D0840E97D0840297E17
:104F3000084205D000202876E875A87568752875A0
:104F400010E3FFE795F82220B1EE041AF9EE041AF7
:104F5000F0EE088AB9EE0C3AB8EE082AF0EE002A14
:104F6000062AEDD2DFE802F00362FCFBFAF9EA6DF3
:104F7000B24205DC9A4203D885ED1F8A69750EE0BE
:104F8000B24201DD024604E0B24201DA0F2200E043
:104F9000002200EE102AB8EEC00A85ED1F0A2A6E24
:104FA000B24205DC9A4203D884ED008AA9750EE06E
:104FB000B24201DD024604E0B24201DA0F2200E013
:104FC000002200EE102AB8EEC00A84ED000A6A6ED4
:104FD000B24205DC9A4203D884ED018AE9750EE0FD
:104FE000B24201DD0F2204E0B24201DA024600E0E3
:104FF000002200EE102AB8EEC00A84ED010AAA6E63
:10500000B24205DC9A4203D884ED028A2976A9E2ED
:10501000B24204DCB24201DA0F2000E0002000EED0
:10502000100AB8EEC00A84ED020A9BE295F824004B
:105030006FF02C0202EB500000EE100AB8EEC00A2E
:1050400084ED0B0A10EE100A10F1814F4AD395ED52
:10505000171AF1EE400A30EEC11A84ED071A21EE5C
:10506000281A85ED1F1A95ED181A30EE410A84EDC5
:10507000080A20EE280A84ED000A10EE900A03F0D8
:1050800033FA41EC100BFBF741FC84ED0C0AD5ED33
:10509000190A30EEC00A84ED090A20EE280A84EDD0
:1050A000010A94ED0B0AB1EE400A10EE100A03F06B
:1050B0001BFA41EC100BFBF729FC84ED0F0A94ED71
:1050C0000C0AD5ED1A0AB1EE400A30EE600A84ED02
:1050D0000A0A20EE280A84ED020A94ED0B0A84EDF8
:1050E0000D0A3FE2B5EEC00AF1EE10FA46DBD5ED4F
:1050F000190A70EE200AC4ED090A60EEA80AC4ED90
:10510000010AD5ED1A0A70EE600AC4ED0A0A60EED3
:10511000A80AC4ED020A10EE100A03F0E5F941EC0A
:10512000100BFBF7F3FB84ED0C0AD5ED170AB1EE7B
:10513000400A30EE600A84ED070A20EE280A85ED69
:105140001F0AE06A03F0D0F941EC100BFBF7DEFB1D
:1051500084ED0F0AD5ED180A03E042E1B0E117E053
:10516000AFE030EE600A84ED080A20EE280A84EDF4
:10517000000A94ED0B0A84ED0D0AF3E12975C4EDE4
:105180000A0AC4ED090AC4ED080AC4ED070AE9E1F8
:1051900095F82410C1F15A0100EE101AB8EEC00AB9
:1051A00084ED0E0A70EE620A95ED171AF4EEC10A4C
:1051B000F1EE10FA08D270EE221AF4EEC11AF1EEF6
:1051C00010FA01DD00210AE0B4EEC01AF1EE10FA87
:1051D00001D20F2103E001DD014600E0002101EED4
:1051E000101AB8EEC11A85ED1F1A95ED181AF4EED3
:1051F000C10AF1EE10FA08D270EE221AF4EEC11ACA
:10520000F1EE10FA01DD00210EE0B4EEC01AF1EE6D
:1052100010FA05D20F2107E0000000200000000076
:1052200001DD014600E0002101EE101AB8EEC11ABE
:1052300084ED001A95ED191AF4EEC10AF1EE10FA98
:1052400008D270EE221AF4EEC11AF1EE10FA01DD66
:10525000002110E0F4EEC10AF1EE10FA01DD014682
:1052600009E070EE221AF4EEC11AF1EE10FA01D242
:105270000F2100E0002101EE101AB8EEC11A84EDF2
:10528000011A95ED1A1AF4EEC10AF1EE10FA08D2DD
:1052900070EE220AF4EEC10AF1EE10FA01DD0020F0
:1052A00008E0B4EEC01AF1EE10FA01D20F2001E0CE
:1052B00000DC002000EE100AB8EEC00A84ED020AFD
:1052C00050E1A98E00EE101AB8EE400A84ED0E0AE5
:1052D000F1EE400A95ED171A30EEE22AB4EEC12A3B
:1052E000F1EE10FA08D272EEC01AF4EEC11AF1EE25
:1052F00010FA01DD00210AE0B4EEE01AF1EE10FA36
:1053000001D20F2103E001DD014600E0002101EEA2
:10531000101AB8EEC11A85ED1F1A70EE621A95EDDB
:10532000181AF4EEC11AF1EE10FA08D230EE223A51
:10533000B4EEC13AF1EE10FA01DD00210AE0B4EE5C
:10534000C01AF1EE10FA01D20F2103E001DD01468F
:1053500000E0002101EE101AB8EEC11A84ED001A27
:1053600095ED191AF4EEC11AF1EE10FA08D270EEAA
:10537000221AF4EEC11AF1EE10FA01DD00210AE062
:10538000B4EEC01AF1EE10FA01D2014603E001DDDD
:105390000F2100E0002101EE101AB8EEC11A84EDD1
:1053A000011A95ED1A1AB4EEC12AF1EE10FA08D2DC
:1053B00032EEC00AB4EEC10AF1EE10FA01DD0020AF
:1053C00008E0B4EEE01AF1EE10FA01D20F2001E08D
:1053D00000DC002000EE100AB8EEC00A84ED020ADC
:1053E000C0E084ED101AC4ED111A95ED170AF1EE24
:1053F0000C1AF4EEC08AF1EE10FA06D2F4EEC01ADE
:10540000F1EE10FA01DD00210AE0B4EEC10AF1EE7E
:1054100010FA01D20F2103E001DD014600E0002176
:1054200000EE901AF8EEE00AC5ED1F0AD5ED180A55
:10543000F4EEE08AF1EE10FA06D2F4EEE01AF1EEA4
:1054400010FA01DD002008E0F4EEC10AF1EE10FAD6
:1054500001D20F2001E000DC002000EE900AF8EEFF
:10546000E00AC4ED000A84ED028A84ED018AF4EEBC
:10547000C08AF1EE10FA12D2F4EEC01AF1EE10FA70
:105480000DDDD5ED190AB4EEE03AF1EE10FA06D2D0
:10549000B4EEE02AF1EE10FA01DD012000E0002078
:1054A0006876F4EEC08AF1EE10FA06D2F4EEC01A75
:1054B000F1EE10FA01DD012000E00020687651E0F5
:1054C000C4ED101A84ED111A95ED170AB4EEC03A26
:1054D000F1EE10FA06D2B4EEC02AF1EE10FA01DDB8
:1054E00000210AE0B4EEE10AF1EE10FA01D20F2138
:1054F00003E001DD014600E0002100EE901AF8EE25
:10550000E00AC5ED1F0AD5ED180AB4EEE03AF1EE57
:1055100010FA06D2B4EEE02AF1EE10FA01DD002016
:1055200008E0F4EEE10AF1EE10FA01D20F2001E0FA
:1055300000DC002000EE900AF8EEE00AC4ED000A5C
:1055400084ED028A84ED018AB4EEC03AF1EE10FADD
:1055500006D2B4EEC02AF1EE10FA01DD012000E01F
:105560000020687695ED1F0A76487749B5EEC00AA7
:10557000F1EE10FA05DDEA6D824202DBB0EE480A78
:1055800009E0B5EEC00AF1EE10FA04D2EA6D8A42E3
:1055900001D3B0EE480A85ED1F0AD4ED000AF5EEFE
:1055A000C00AF1EE10FA05DD2A6E824202DBF0EE4F
:1055B000480A09E0F5EEC00AF1EE10FA04D22A6EAC
:1055C0008A4201D3F0EE480AC4ED000AD4ED010A84
:1055D000F5EEC00AF1EE10FA05D26A6E824202DBE5
:1055E000F0EE480A09E0F5EEC00AF1EE10FA04DD2B
:1055F0006A6E8A4201D3F0EE480AC4ED010AD4ED86
:10560000020AF5EEC00AF1EE10FA02DDAA6E82423D
:1056100009DAF5EEC00AF1EE10FA02D2A86E88425D
:1056200001D2B0EE608A84ED028AD4ED030A474EBF
:105630009FED478A474FDFED488AF4EE400AF1EECE
:1056400010FA17D010EE100AB04202DDB0EE480A90
:1056500005E010EE100AB84201D9B0EE680A85EDF7
:105660001F0AB1EE400AA87AFFF718FB95ED1F0A52
:1056700084ED030AD4ED040A94ED000AF4EE400A26
:10568000F1EE10FA17D010EE100AB04202DDB0EEC3
:10569000480A05E010EE100AB84201D9B0EE680AD7
:1056A00084ED000AB1EE400AE87AFFF7F7FA94EDCC
:1056B000000A84ED040AD4ED050A94ED010AF4EE23
:1056C000400AF1EE10FA17D010EE100AB04202DDD7
:1056D000B0EE480A05E010EE100AB84201D9B0EE6B
:1056E000680A84ED010AB1EE400A287BFFF7D6FA7A
:1056F00094ED010A84ED050AD4ED060A94ED020A40
:10570000F4EE400AF1EE10FA17D010EE100AB04293
:1057100002DDB0EE480A05E010EE100AB84201D9E9
:10572000B0EE680A84ED020AB1EE400A687BFFF72A
:10573000B5FA94ED020A84ED060ABDEC028BBDE8D1
:10574000F08100000000B4420000B4C200004842F2
:1057500000004842000048C2000048C210B52DEDCC
:10576000028B01249FED108A2046B0EE480AFFF715
:105770007FFA641CE4B2042CF6D90824B0EE480A7F
:105780002046FFF78BFA641CE4B20B2CF6D90748CD
:1057900080ED068A80ED048A80ED058A80ED038A1B
:1057A000BDEC028B10BD0000000000008000002056
:1057B00010B5502080F31188BFF34F8FBFF36F8F68
:1057C00002F07EF818B104494FF0805008600020C4
:1057D00080F3118810BD000004ED00E010B594B016
:1057E000342107A8FAF777FE142102A8FAF773FE0E
:1057F00000242048016841F080510160006800F0F9
:10580000805001901C48016841F4404101600068EB
:1058100000F440400190012007900004089002200D
:105820000D9041050E9104210F91B421109111901A
:105830001290139007A8FDF7F9F908B1FBF722FCC5
:10584000FDF77EF808B1FBF71DFC0F200290032046
:10585000039004944FF4A05005904FF480500690AC
:10586000052102A8FDF7A6F8002801D0FBF70AFCE5
:1058700014B010BD4038024000700040024801687A
:1058800041F470010160704788ED00E00148FDF7C8
:105890005CBC0000540800200148FDF756BC000025
:1058A000580300202DE9F04102682A4D2A4E2B4F63
:1058B000DFF8ACC02B4B4FF08048A84209D04045E0
:1058C00007D0B04205D0B84203D0604501D098421D
:1058D00003D122F070044A682243A8421BD04045FD
:1058E00019D0B04217D0B84215D0604513D09842B5
:1058F00011D01D4CA0420ED01C4CA0420BD01C4C11
:10590000A04208D01B4CA04205D01B4CA04202D0A4
:105910001A4CA04203D122F44074CA6822434C6955
:1059200022F08002224302608A68C2620A688262B0
:10593000A84201D0984201D1096901630121416166
:105940000169C90703D0016921F001010161BDE8C6
:10595000F081000000000140000400400008004009
:10596000000C0040000401400040014000440140A0
:105970000048014000180040001C0040002000408A
:105980000148FDF78FBC0000A00300200148FDF78F
:1059900089BC0000E803002010B5806B0021C185A0
:1059A000C184FDF77DFC10BD01680C3151E8002F6A
:1059B00022F4907241E80023002BF5D101681431E4
:1059C00051E8002F22F0010241E80023002BF5D11D
:1059D000016B012909D101680C3151E8002F22F037
:1059E000100241E80023002BF5D1202180F842105D
:1059F00000210163704710B50168CA6822F04002B7
:105A0000CA60202180F84110FDF74BFE002010BD38
:105A100008B590F84210222901D0022008BD826802
:105A20004FF480539A4201D1016921B1816A9A42AF
:105A30001DD052B10BE0816A02685268C2F30802BD
:105A40000A80816A891C816209E002697AB1026870
:105A5000526802F07F020A70816A491C8162C18D1E
:105A6000491E0904090CC18505D0002008BD026843
:105A700052680A70F0E70168CA6822F02002CA6022
:105A80000168CA6822F48072CA6001684A6922F01B
:105A900001024A61202180F8421000214163026B1B
:105AA000012A03D0FDF7D2FD002008BD0163016883
:105AB0000C3151E8002F22F0100241E80023002BA6
:105AC000F5D101680A68D20602D50A6849680091D2
:105AD000818DFDF7E4FBE7E72DE9F04104462068FE
